{
  "contractName": "Main",
  "abi": [
    {
      "inputs": [],
      "payable": false,
      "stateMutability": "nonpayable",
      "type": "constructor"
    },
    {
      "payable": false,
      "stateMutability": "nonpayable",
      "type": "fallback"
    },
    {
      "constant": false,
      "inputs": [
        {
          "name": "accountAddress",
          "type": "address"
        },
        {
          "name": "utilityCompany",
          "type": "address"
        }
      ],
      "name": "userRegistration",
      "outputs": [
        {
          "name": "",
          "type": "bool"
        }
      ],
      "payable": false,
      "stateMutability": "nonpayable",
      "type": "function"
    },
    {
      "constant": false,
      "inputs": [
        {
          "name": "accountAddress",
          "type": "address"
        },
        {
          "name": "typeOfAccount",
          "type": "uint256"
        }
      ],
      "name": "registration",
      "outputs": [
        {
          "name": "",
          "type": "bool"
        }
      ],
      "payable": false,
      "stateMutability": "nonpayable",
      "type": "function"
    },
    {
      "constant": false,
      "inputs": [
        {
          "name": "newCreditRate",
          "type": "uint256"
        }
      ],
      "name": "changeCreditRate",
      "outputs": [
        {
          "name": "",
          "type": "bool"
        }
      ],
      "payable": false,
      "stateMutability": "nonpayable",
      "type": "function"
    },
    {
      "constant": false,
      "inputs": [
        {
          "name": "newDollarRate",
          "type": "uint256"
        }
      ],
      "name": "changeUnitRate",
      "outputs": [
        {
          "name": "",
          "type": "bool"
        }
      ],
      "payable": false,
      "stateMutability": "nonpayable",
      "type": "function"
    },
    {
      "constant": false,
      "inputs": [
        {
          "name": "newPrice",
          "type": "uint256"
        }
      ],
      "name": "changeCreditPrice",
      "outputs": [
        {
          "name": "",
          "type": "bool"
        }
      ],
      "payable": false,
      "stateMutability": "nonpayable",
      "type": "function"
    },
    {
      "constant": false,
      "inputs": [
        {
          "name": "amountInUnit",
          "type": "uint256"
        },
        {
          "name": "owner",
          "type": "address"
        }
      ],
      "name": "chargeCompleted",
      "outputs": [
        {
          "name": "",
          "type": "bool"
        }
      ],
      "payable": false,
      "stateMutability": "nonpayable",
      "type": "function"
    },
    {
      "constant": false,
      "inputs": [
        {
          "name": "numOfCredit",
          "type": "uint256"
        }
      ],
      "name": "sell",
      "outputs": [
        {
          "name": "",
          "type": "bool"
        }
      ],
      "payable": false,
      "stateMutability": "nonpayable",
      "type": "function"
    },
    {
      "constant": false,
      "inputs": [
        {
          "name": "numOfCredit",
          "type": "uint256"
        }
      ],
      "name": "buy",
      "outputs": [
        {
          "name": "",
          "type": "bool"
        }
      ],
      "payable": false,
      "stateMutability": "nonpayable",
      "type": "function"
    },
    {
      "constant": false,
      "inputs": [
        {
          "name": "target",
          "type": "address"
        },
        {
          "name": "x",
          "type": "uint256"
        }
      ],
      "name": "verifyAndRedeem",
      "outputs": [
        {
          "name": "",
          "type": "bool"
        }
      ],
      "payable": false,
      "stateMutability": "nonpayable",
      "type": "function"
    },
    {
      "constant": false,
      "inputs": [
        {
          "name": "target",
          "type": "address"
        }
      ],
      "name": "peekAndVerify",
      "outputs": [
        {
          "name": "",
          "type": "uint256"
        }
      ],
      "payable": false,
      "stateMutability": "nonpayable",
      "type": "function"
    },
    {
      "constant": false,
      "inputs": [
        {
          "name": "amountInDollar",
          "type": "uint256"
        }
      ],
      "name": "userWithdrawal",
      "outputs": [
        {
          "name": "",
          "type": "bool"
        }
      ],
      "payable": false,
      "stateMutability": "nonpayable",
      "type": "function"
    },
    {
      "constant": false,
      "inputs": [
        {
          "name": "amountInWei",
          "type": "uint256"
        }
      ],
      "name": "etherWithdrawal",
      "outputs": [
        {
          "name": "",
          "type": "bool"
        }
      ],
      "payable": false,
      "stateMutability": "nonpayable",
      "type": "function"
    },
    {
      "constant": false,
      "inputs": [],
      "name": "etherDeposit",
      "outputs": [
        {
          "name": "",
          "type": "bool"
        }
      ],
      "payable": true,
      "stateMutability": "payable",
      "type": "function"
    },
    {
      "constant": false,
      "inputs": [
        {
          "name": "user",
          "type": "address"
        }
      ],
      "name": "getUserBalance",
      "outputs": [
        {
          "name": "",
          "type": "uint256"
        }
      ],
      "payable": false,
      "stateMutability": "nonpayable",
      "type": "function"
    },
    {
      "constant": false,
      "inputs": [
        {
          "name": "user",
          "type": "address"
        }
      ],
      "name": "getUserUtilityCompany",
      "outputs": [
        {
          "name": "",
          "type": "address"
        }
      ],
      "payable": false,
      "stateMutability": "nonpayable",
      "type": "function"
    },
    {
      "constant": false,
      "inputs": [
        {
          "name": "addr",
          "type": "address"
        }
      ],
      "name": "getCreditBalance",
      "outputs": [
        {
          "name": "",
          "type": "uint256"
        }
      ],
      "payable": false,
      "stateMutability": "nonpayable",
      "type": "function"
    },
    {
      "constant": false,
      "inputs": [
        {
          "name": "addr",
          "type": "address"
        }
      ],
      "name": "getEtherBalance",
      "outputs": [
        {
          "name": "",
          "type": "uint256"
        }
      ],
      "payable": false,
      "stateMutability": "nonpayable",
      "type": "function"
    },
    {
      "constant": false,
      "inputs": [
        {
          "name": "addr",
          "type": "address"
        },
        {
          "name": "master",
          "type": "bool"
        },
        {
          "name": "toVerify",
          "type": "bool"
        },
        {
          "name": "toRedeem",
          "type": "bool"
        },
        {
          "name": "toChangeRates",
          "type": "bool"
        },
        {
          "name": "toViewUserData",
          "type": "bool"
        },
        {
          "name": "toUpdateAccess",
          "type": "bool"
        },
        {
          "name": "oracle",
          "type": "bool"
        }
      ],
      "name": "changeAccess",
      "outputs": [
        {
          "name": "",
          "type": "bool"
        }
      ],
      "payable": false,
      "stateMutability": "nonpayable",
      "type": "function"
    },
    {
      "constant": false,
      "inputs": [
        {
          "name": "accessList",
          "type": "uint256"
        },
        {
          "name": "addressList",
          "type": "address[]"
        }
      ],
      "name": "addTo",
      "outputs": [
        {
          "name": "",
          "type": "bool"
        }
      ],
      "payable": false,
      "stateMutability": "nonpayable",
      "type": "function"
    },
    {
      "constant": false,
      "inputs": [
        {
          "name": "accessList",
          "type": "uint256"
        },
        {
          "name": "addressList",
          "type": "address[]"
        }
      ],
      "name": "removeFrom",
      "outputs": [
        {
          "name": "",
          "type": "bool"
        }
      ],
      "payable": false,
      "stateMutability": "nonpayable",
      "type": "function"
    }
  ],
  "bytecode": "0x608060405260016000556103846001556103e860025534801561002157600080fd5b506001600a60003373ffffffffffffffffffffffffffffffffffffffff1673ffffffffffffffffffffffffffffffffffffffff16815260200190815260200160002060006101000a81548160ff021916908315150217905550611a47806100896000396000f300608060405260043610610112576000357c0100000000000000000000000000000000000000000000000000000000900463ffffffff1680631cc685b21461012457806332de2faa146101ac57806343772139146101f15780634393d90714610279578063477348921461029b57806348464292146102f25780635fc1ad7014610337578063607a285b1461039c578063699e99d2146104175780636add1b3f146104c657806379cc61811461051d578063a10600fb14610562578063d96a094a146105a7578063dc45d08e146105ec578063e4849b3214610643578063f09c69c714610688578063f0aaebe8146106cd578063f197db5214610732578063f532d68614610789578063f5724b43146107ee575b34801561011e57600080fd5b50600080fd5b34801561013057600080fd5b506101926004803603810190808035906020019092919080359060200190820180359060200190808060200260200160405190810160405280939291908181526020018383602002808284378201915050505050509192919290505050610871565b604051808215151515815260200191505060405180910390f35b3480156101b857600080fd5b506101d760048036038101908080359060200190929190505050610953565b604051808215151515815260200191505060405180910390f35b3480156101fd57600080fd5b5061025f6004803603810190808035906020019092919080359060200190820180359060200190808060200260200160405190810160405280939291908181526020018383602002808284378201915050505050509192919290505050610a1d565b604051808215151515815260200191505060405180910390f35b610281610aff565b604051808215151515815260200191505060405180910390f35b3480156102a757600080fd5b506102dc600480360381019080803573ffffffffffffffffffffffffffffffffffffffff169060200190929190505050610bbe565b6040518082815260200191505060405180910390f35b3480156102fe57600080fd5b5061031d60048036038101908080359060200190929190505050610c81565b604051808215151515815260200191505060405180910390f35b34801561034357600080fd5b5061038260048036038101908080359060200190929190803573ffffffffffffffffffffffffffffffffffffffff169060200190929190505050610d4b565b604051808215151515815260200191505060405180910390f35b3480156103a857600080fd5b506103fd600480360381019080803573ffffffffffffffffffffffffffffffffffffffff169060200190929190803573ffffffffffffffffffffffffffffffffffffffff169060200190929190505050610f10565b604051808215151515815260200191505060405180910390f35b34801561042357600080fd5b506104ac600480360381019080803573ffffffffffffffffffffffffffffffffffffffff169060200190929190803515159060200190929190803515159060200190929190803515159060200190929190803515159060200190929190803515159060200190929190803515159060200190929190803515159060200190929190505050611112565b604051808215151515815260200191505060405180910390f35b3480156104d257600080fd5b50610507600480360381019080803573ffffffffffffffffffffffffffffffffffffffff1690602001909291905050506111dc565b6040518082815260200191505060405180910390f35b34801561052957600080fd5b506105486004803603810190808035906020019092919050505061129f565b604051808215151515815260200191505060405180910390f35b34801561056e57600080fd5b5061058d60048036038101908080359060200190929190505050611369565b604051808215151515815260200191505060405180910390f35b3480156105b357600080fd5b506105d26004803603810190808035906020019092919050505061142f565b604051808215151515815260200191505060405180910390f35b3480156105f857600080fd5b5061062d600480360381019080803573ffffffffffffffffffffffffffffffffffffffff169060200190929190505050611499565b6040518082815260200191505060405180910390f35b34801561064f57600080fd5b5061066e6004803603810190808035906020019092919050505061155c565b604051808215151515815260200191505060405180910390f35b34801561069457600080fd5b506106b3600480360381019080803590602001909291905050506115c6565b604051808215151515815260200191505060405180910390f35b3480156106d957600080fd5b50610718600480360381019080803573ffffffffffffffffffffffffffffffffffffffff16906020019092919080359060200190929190505050611630565b604051808215151515815260200191505060405180910390f35b34801561073e57600080fd5b50610773600480360381019080803573ffffffffffffffffffffffffffffffffffffffff1690602001909291905050506117d1565b6040518082815260200191505060405180910390f35b34801561079557600080fd5b506107d4600480360381019080803573ffffffffffffffffffffffffffffffffffffffff16906020019092919080359060200190929190505050611894565b604051808215151515815260200191505060405180910390f35b3480156107fa57600080fd5b5061082f600480360381019080803573ffffffffffffffffffffffffffffffffffffffff169060200190929190505050611958565b604051808273ffffffffffffffffffffffffffffffffffffffff1673ffffffffffffffffffffffffffffffffffffffff16815260200191505060405180910390f35b6000600a600115158160003373ffffffffffffffffffffffffffffffffffffffff1673ffffffffffffffffffffffffffffffffffffffff16815260200190815260200160002060009054906101000a900460ff1615151480610923575060011515600a60003373ffffffffffffffffffffffffffffffffffffffff1673ffffffffffffffffffffffffffffffffffffffff16815260200190815260200160002060009054906101000a900460ff161515145b151561092e57600080fd5b600184108061093d5750600784115b1561094b576000915061094c565b5b5092915050565b6000600d600115158160003373ffffffffffffffffffffffffffffffffffffffff1673ffffffffffffffffffffffffffffffffffffffff16815260200190815260200160002060009054906101000a900460ff1615151480610a05575060011515600a60003373ffffffffffffffffffffffffffffffffffffffff1673ffffffffffffffffffffffffffffffffffffffff16815260200190815260200160002060009054906101000a900460ff161515145b1515610a1057600080fd5b8260008190555050919050565b6000600a600115158160003373ffffffffffffffffffffffffffffffffffffffff1673ffffffffffffffffffffffffffffffffffffffff16815260200190815260200160002060009054906101000a900460ff1615151480610acf575060011515600a60003373ffffffffffffffffffffffffffffffffffffffff1673ffffffffffffffffffffffffffffffffffffffff16815260200190815260200160002060009054906101000a900460ff161515145b1515610ada57600080fd5b6001841080610ae95750600784115b15610af75760009150610af8565b5b5092915050565b60006002600960003373ffffffffffffffffffffffffffffffffffffffff1673ffffffffffffffffffffffffffffffffffffffff16815260200190815260200160002060009054906101000a900460ff1660ff1614158015610bb157506003600960003373ffffffffffffffffffffffffffffffffffffffff1673ffffffffffffffffffffffffffffffffffffffff16815260200190815260200160002060009054906101000a900460ff1660ff1614155b15610bbb57600080fd5b90565b6000600e600115158160003373ffffffffffffffffffffffffffffffffffffffff1673ffffffffffffffffffffffffffffffffffffffff16815260200190815260200160002060009054906101000a900460ff1615151480610c70575060011515600a60003373ffffffffffffffffffffffffffffffffffffffff1673ffffffffffffffffffffffffffffffffffffffff16815260200190815260200160002060009054906101000a900460ff161515145b1515610c7b57600080fd5b50919050565b6000600d600115158160003373ffffffffffffffffffffffffffffffffffffffff1673ffffffffffffffffffffffffffffffffffffffff16815260200190815260200160002060009054906101000a900460ff1615151480610d33575060011515600a60003373ffffffffffffffffffffffffffffffffffffffff1673ffffffffffffffffffffffffffffffffffffffff16815260200190815260200160002060009054906101000a900460ff161515145b1515610d3e57600080fd5b8260028190555050919050565b60006010600115158160003373ffffffffffffffffffffffffffffffffffffffff1673ffffffffffffffffffffffffffffffffffffffff16815260200190815260200160002060009054906101000a900460ff1615151480610dfd575060011515600a60003373ffffffffffffffffffffffffffffffffffffffff1673ffffffffffffffffffffffffffffffffffffffff16815260200190815260200160002060009054906101000a900460ff161515145b1515610e0857600080fd5b6001548402600460008573ffffffffffffffffffffffffffffffffffffffff1673ffffffffffffffffffffffffffffffffffffffff16815260200190815260200160002060008282540192505081905550600054840260036000600660008773ffffffffffffffffffffffffffffffffffffffff1673ffffffffffffffffffffffffffffffffffffffff16815260200190815260200160002060009054906101000a900473ffffffffffffffffffffffffffffffffffffffff1673ffffffffffffffffffffffffffffffffffffffff1673ffffffffffffffffffffffffffffffffffffffff168152602001908152602001600020600082825401925050819055505092915050565b6000600a600115158160003373ffffffffffffffffffffffffffffffffffffffff1673ffffffffffffffffffffffffffffffffffffffff16815260200190815260200160002060009054906101000a900460ff1615151480610fc2575060011515600a60003373ffffffffffffffffffffffffffffffffffffffff1673ffffffffffffffffffffffffffffffffffffffff16815260200190815260200160002060009054906101000a900460ff161515145b1515610fcd57600080fd5b6002600960008573ffffffffffffffffffffffffffffffffffffffff1673ffffffffffffffffffffffffffffffffffffffff16815260200190815260200160002060009054906101000a900460ff1660ff1614151561102f576000915061110b565b6001600960008673ffffffffffffffffffffffffffffffffffffffff1673ffffffffffffffffffffffffffffffffffffffff16815260200190815260200160002060006101000a81548160ff021916908360ff16021790555082600660008673ffffffffffffffffffffffffffffffffffffffff1673ffffffffffffffffffffffffffffffffffffffff16815260200190815260200160002060006101000a81548173ffffffffffffffffffffffffffffffffffffffff021916908373ffffffffffffffffffffffffffffffffffffffff160217905550600191505b5092915050565b6000600a600115158160003373ffffffffffffffffffffffffffffffffffffffff1673ffffffffffffffffffffffffffffffffffffffff16815260200190815260200160002060009054906101000a900460ff16151514806111c4575060011515600a60003373ffffffffffffffffffffffffffffffffffffffff1673ffffffffffffffffffffffffffffffffffffffff16815260200190815260200160002060009054906101000a900460ff161515145b15156111cf57600080fd5b5098975050505050505050565b6000600a600115158160003373ffffffffffffffffffffffffffffffffffffffff1673ffffffffffffffffffffffffffffffffffffffff16815260200190815260200160002060009054906101000a900460ff161515148061128e575060011515600a60003373ffffffffffffffffffffffffffffffffffffffff1673ffffffffffffffffffffffffffffffffffffffff16815260200190815260200160002060009054906101000a900460ff161515145b151561129957600080fd5b50919050565b6000600d600115158160003373ffffffffffffffffffffffffffffffffffffffff1673ffffffffffffffffffffffffffffffffffffffff16815260200190815260200160002060009054906101000a900460ff1615151480611351575060011515600a60003373ffffffffffffffffffffffffffffffffffffffff1673ffffffffffffffffffffffffffffffffffffffff16815260200190815260200160002060009054906101000a900460ff161515145b151561135c57600080fd5b8260018190555050919050565b60006002600960003373ffffffffffffffffffffffffffffffffffffffff1673ffffffffffffffffffffffffffffffffffffffff16815260200190815260200160002060009054906101000a900460ff1660ff161415801561141b57506003600960003373ffffffffffffffffffffffffffffffffffffffff1673ffffffffffffffffffffffffffffffffffffffff16815260200190815260200160002060009054906101000a900460ff1660ff1614155b15611429576000905061142a565b5b919050565b60006003600960003373ffffffffffffffffffffffffffffffffffffffff1673ffffffffffffffffffffffffffffffffffffffff16815260200190815260200160002060009054906101000a900460ff1660ff161415156114935760009050611494565b5b919050565b6000600a600115158160003373ffffffffffffffffffffffffffffffffffffffff1673ffffffffffffffffffffffffffffffffffffffff16815260200190815260200160002060009054906101000a900460ff161515148061154b575060011515600a60003373ffffffffffffffffffffffffffffffffffffffff1673ffffffffffffffffffffffffffffffffffffffff16815260200190815260200160002060009054906101000a900460ff161515145b151561155657600080fd5b50919050565b60006002600960003373ffffffffffffffffffffffffffffffffffffffff1673ffffffffffffffffffffffffffffffffffffffff16815260200190815260200160002060009054906101000a900460ff1660ff161415156115c057600090506115c1565b5b919050565b60006001600960003373ffffffffffffffffffffffffffffffffffffffff1673ffffffffffffffffffffffffffffffffffffffff16815260200190815260200160002060009054906101000a900460ff1660ff1614151561162a576000905061162b565b5b919050565b6000600a600115158160003373ffffffffffffffffffffffffffffffffffffffff1673ffffffffffffffffffffffffffffffffffffffff16815260200190815260200160002060009054906101000a900460ff16151514806116e2575060011515600a60003373ffffffffffffffffffffffffffffffffffffffff1673ffffffffffffffffffffffffffffffffffffffff16815260200190815260200160002060009054906101000a900460ff161515145b15156116ed57600080fd5b6002831415611754576002600960008673ffffffffffffffffffffffffffffffffffffffff1673ffffffffffffffffffffffffffffffffffffffff16815260200190815260200160002060006101000a81548160ff021916908360ff1602179055506117c5565b60038314156117bb576003600960008673ffffffffffffffffffffffffffffffffffffffff1673ffffffffffffffffffffffffffffffffffffffff16815260200190815260200160002060006101000a81548160ff021916908360ff1602179055506117c4565b600091506117ca565b5b600191505b5092915050565b6000600b600115158160003373ffffffffffffffffffffffffffffffffffffffff1673ffffffffffffffffffffffffffffffffffffffff16815260200190815260200160002060009054906101000a900460ff1615151480611883575060011515600a60003373ffffffffffffffffffffffffffffffffffffffff1673ffffffffffffffffffffffffffffffffffffffff16815260200190815260200160002060009054906101000a900460ff161515145b151561188e57600080fd5b50919050565b6000600c600115158160003373ffffffffffffffffffffffffffffffffffffffff1673ffffffffffffffffffffffffffffffffffffffff16815260200190815260200160002060009054906101000a900460ff1615151480611946575060011515600a60003373ffffffffffffffffffffffffffffffffffffffff1673ffffffffffffffffffffffffffffffffffffffff16815260200190815260200160002060009054906101000a900460ff161515145b151561195157600080fd5b5092915050565b6000600e600115158160003373ffffffffffffffffffffffffffffffffffffffff1673ffffffffffffffffffffffffffffffffffffffff16815260200190815260200160002060009054906101000a900460ff1615151480611a0a575060011515600a60003373ffffffffffffffffffffffffffffffffffffffff1673ffffffffffffffffffffffffffffffffffffffff16815260200190815260200160002060009054906101000a900460ff161515145b1515611a1557600080fd5b509190505600a165627a7a72305820fc5e544be15f75829b46e67466a904650dbb38cc4cd7289a17c33b3179c269f60029",
  "source": "pragma solidity ^0.4.24;\ncontract Main {\n\n  /* +++++++++++++++++++++++++++++++++++++++++++++++++++++++++++++++\n  *  ==============================INIT=============================\n  *  +++++++++++++++++++++++++++++++++++++++++++++++++++++++++++++++*/\n  uint creditPerUnitOfCharge = 1;\n  uint dollarPerUnitOfCharge = 900; // How much users get when they finish charging\n  uint weiPerCredit = 1000; // How much each credit is sold for\n\n  /* Keeps track of credits of approved regulated parties\n  (utility companies and fossil fuel generators) */\n  mapping (address => uint) private credits;\n\n  /* Keeps track of balances in dollar of vehicle owners */\n  mapping (address => uint) private balances;\n\n  /* Keeps track of balances in wei of utility companies\n  and fossil fuel generators */\n  mapping (address => uint) private etherBalances;\n\n  /* Maps user address to utility company address */\n  mapping (address => address) private utilityCompanyOfUser;\n\n  /*\n  When a utility company puts x amount of credits on sale,\n  they get added to the list of sellers **if they are not already\n  on the list**, then the amount they want to sell is added to their\n  amountForSale.\n  */\n  mapping(address => uint) private amountForSale;\n  address[] sellers;\n\n  /* Types of Acccount:\n  0 (or any other number): Unverified/Unregistered/Uninitialized\n  1: Users (Vehicle Owners)\n  2: Utility Companies\n  3: Fossil Fuel Generators */\n  mapping(address => uint8) private addressType;\n\n  /*\n  accessList ID:\n  1 masterAccess;\n  2 authorizedToVerify;\n  3 authorizedToRedeem;\n  4 authorizedToChangeRates;\n  5 authorizedToViewUserData;\n  6 authorizedToUpdateAccess;\n  7 authorizedOracle;\n  */\n  mapping (address => bool) private masterAccess;\n  mapping (address => bool) private authorizedToVerify;\n  mapping (address => bool) private authorizedToRedeem;\n  mapping (address => bool) private authorizedToChangeRates;\n  mapping (address => bool) private authorizedToViewUserData;\n  mapping (address => bool) private authorizedToUpdateAccess;\n  mapping (address => bool) private authorizedOracle;\n\n  /* modifier to only allow function calls if caller is authorized in list */\n  modifier _is(mapping (address => bool) list) {\n    require(list[msg.sender] == true\n    || masterAccess[msg.sender] == true);\n    _;\n  }\n\n  /* Constructor function */\n  constructor() public {\n    masterAccess[msg.sender] = true;\n  }\n\n  function() public {\n    revert();\n  }\n\n  function userRegistration(address accountAddress, address utilityCompany) public\n    _is(masterAccess) returns (bool) {\n    if (addressType[utilityCompany] != 2) {\n      return false;\n    }\n    addressType[accountAddress] = 1;\n    utilityCompanyOfUser[accountAddress] = utilityCompany;\n    //TO DO: implement hold of ether from utility company\n    return true;\n  }\n\n  /* Types of Acccount:\n  0 (or any other number): Unverified/Unregistered/Uninitialized\n  1: Users (Vehicle Owners)\n  2: Utility Companies\n  3: Fossil Fuel Generators\n  This function has to be called by an master account\n  who has masterAccess !!!after verifying account type!!!\n  (possibly from an oracle) */\n  function registration(address accountAddress, uint typeOfAccount) public\n    _is(masterAccess) returns (bool){\n    if (typeOfAccount == 2) {\n      addressType[accountAddress] = 2;\n    } else if (typeOfAccount == 3) {\n      addressType[accountAddress] = 3;\n    } else {\n      return false;\n    }\n    return true;\n  }\n\n  /* +++++++++++++++++++++++++++++++++++++++++++++++++++++++++++++++\n  *  =================CHANGE VARIABLES W/ ACCESS====================\n  *  +++++++++++++++++++++++++++++++++++++++++++++++++++++++++++++++*/\n\n  function changeCreditRate(uint newCreditRate) public\n    _is(authorizedToChangeRates) returns (bool){\n    creditPerUnitOfCharge = newCreditRate;\n  }\n\n  function changeUnitRate(uint newDollarRate) public\n    _is(authorizedToChangeRates) returns (bool){\n    dollarPerUnitOfCharge = newDollarRate;\n  }\n\n  function changeCreditPrice(uint newPrice) public\n    _is(authorizedToChangeRates) returns (bool){\n    weiPerCredit = newPrice;\n  }\n\n  /* +++++++++++++++++++++++++++++++++++++++++++++++++++++++++++++++\n  *  ============CREDIT CREATION (FROM ENERGY TO CREDIT)============\n  *  +++++++++++++++++++++++++++++++++++++++++++++++++++++++++++++++*/\n\n  function chargeCompleted(uint amountInUnit, address owner)\n    public _is(authorizedOracle) returns (bool){\n    balances[owner] += amountInUnit * dollarPerUnitOfCharge;\n    credits[utilityCompanyOfUser[owner]] += amountInUnit * creditPerUnitOfCharge;\n  }\n\n  /* +++++++++++++++++++++++++++++++++++++++++++++++++++++++++++++++\n  *  ========================CREDIT TRADING=========================\n  *  +++++++++++++++++++++++++++++++++++++++++++++++++++++++++++++++*/\n\n  function sell(uint numOfCredit) public returns (bool) {\n    if (addressType[msg.sender] != 2) {\n      return false;\n    }\n    // YOUR CODE HERE\n  }\n\n  function buy(uint numOfCredit) public returns (bool) {\n    if (addressType[msg.sender] != 3) {\n      return false;\n    }\n    // YOUR CODE HERE\n  }\n\n  /* +++++++++++++++++++++++++++++++++++++++++++++++++++++++++++++++\n  *  =====================CREDIT VERIFICATIONS======================\n  *  +++++++++++++++++++++++++++++++++++++++++++++++++++++++++++++++*/\n\n\n  /* checks if the target address is a fossil fuel company\n  and that there are x amount of credits on that account, then\n  deduct x amount of credits from address. Returns true if succeeded.*/\n  function verifyAndRedeem(address target, uint x) public\n    _is(authorizedToRedeem) returns (bool) {\n    // YOUR CODE HERE\n  }\n\n  /* checks if the target address is a fossil fuel company\n  and returns the number of credits on that account. */\n  function peekAndVerify(address target) public\n    _is(authorizedToVerify) returns (uint){\n    // YOUR CODE HERE\n  }\n\n  /* +++++++++++++++++++++++++++++++++++++++++++++++++++++++++++++++\n  *  ======================WITHDRAWAL/DEPOSIT=======================\n  *  +++++++++++++++++++++++++++++++++++++++++++++++++++++++++++++++*/\n\n  /* Converts the amountInDollar to ether (wei) at the current exchange\n  rate and withdraw ether from user's corresponding utility company */\n  function userWithdrawal(uint amountInDollar) public returns(bool) {\n    if (addressType[msg.sender] != 1) {\n      return false;\n    }\n    // YOUR CODE HERE\n  }\n\n  /* Withdrawal function for utility companies and fossil fuel companies */\n  function etherWithdrawal(uint amountInWei) public returns (bool) {\n    if (addressType[msg.sender] != 2 && addressType[msg.sender] != 3) {\n      return false;\n    }\n    // YOUR CODE HERE\n  }\n\n  /* Deposit function for utility companies and fossil fuel companies */\n  function etherDeposit() payable public returns (bool) {\n    if (addressType[msg.sender] != 2 && addressType[msg.sender] != 3) {\n      revert();\n      return false;\n    }\n    // YOUR CODE HERE\n  }\n\n  /* +++++++++++++++++++++++++++++++++++++++++++++++++++++++++++++++\n  *  ========================GETTER FUNCTIONS=======================\n  *  +++++++++++++++++++++++++++++++++++++++++++++++++++++++++++++++*/\n\n  /* Because mappings are not iterable, it might be necessary to\n  keep a list of account addresses on a server. The type of each address\n  can be acquired from mapping addressType[] */\n\n  function getUserBalance(address user) public\n    _is(authorizedToViewUserData) returns (uint) {\n    // YOUR CODE HERE\n  }\n\n  function getUserUtilityCompany(address user) public\n    _is(authorizedToViewUserData) returns (address) {\n    // YOUR CODE HERE\n  }\n\n  function getCreditBalance(address addr) public\n    _is(masterAccess) returns (uint) {\n    // YOUR CODE HERE\n  }\n\n  function getEtherBalance(address addr) public\n    _is(masterAccess) returns (uint) {\n    // YOUR CODE HERE\n  }\n\n  /* +++++++++++++++++++++++++++++++++++++++++++++++++++++++++++++++\n  *  =========================CHANGE ACCESS=========================\n  *  +++++++++++++++++++++++++++++++++++++++++++++++++++++++++++++++*/\n\n\n  /* Quick overall change of access for a single account */\n  function changeAccess(address addr, bool master,\n    bool toVerify, bool toRedeem,\n    bool toChangeRates, bool toViewUserData,\n    bool toUpdateAccess, bool oracle) public\n    _is(masterAccess) returns (bool) {\n    // YOUR CODE HERE\n  }\n\n  /* Quick mass granting of access for many accounts.\n  accessList ID:\n  1 masterAccess;\n  2 authorizedToVerify;\n  3 authorizedToRedeem;\n  4 authorizedToChangeRates;\n  5 authorizedToViewUserData;\n  6 authorizedToUpdateAccess;\n  7 authorizedOracle; */\n  function addTo(uint accessList, address[] addressList) public\n    _is(masterAccess) returns (bool) {\n    if (accessList < 1 || accessList > 7) {\n      return false;\n    }\n    // YOUR CODE HERE\n  }\n\n  /* Quick mass revoking of access for many accounts */\n  function removeFrom(uint accessList, address[] addressList) public\n    _is(masterAccess) returns (bool) {\n    if (accessList < 1 || accessList > 7) {\n      return false;\n    }\n    // YOUR CODE HERE\n  }\n\n}\n",
  "sourcePath": "/Users/michaeleliot/Projects/blockchain/energy_assets/energy_assets_backend/contracts/Main.sol",
  "compiler": {
    "name": "solc",
    "version": "0.4.24+commit.e67f0147.Emscripten.clang"
  },
  "schemaVersion": "2.0.1",
  "updatedAt": "2018-11-17T07:22:33.666Z"
}